:0800000018C0FECFFDCFFCCFBC
:10000800FBCFFACFF9CFF8CFF7CFF6CFF5CFF4CFB4
:10001800F3CFF2CFF1CFF0CFEFCFEECFEDCFC0F9E6
:10002800A4B0999282F88090FF00F894EE27ECBB78
:10003800F1E0FBBFEBBFE5BF8DE0A2E0BB27ED938E
:100048008A95E9F780E094E0A0E6ED930197E9F757
:10005800EFE5EDBFE4E0EEBFC0E6D1E000C02E97CB
:100068008CE0A2E0B0E0E6E2F0E0ABD1EFEFE7BB76
:10007800E0E0E8BBEFE7E4BBE0E0E5BBE0EEE1BBD6
:10008800EFE0E2BBEAD07894E8D0EDB7FEB7FA9398
:10009800EA931F93EDB7FEB7FA93EA930F93ADB7C0
:1000A800BEB73F9395D03F910F911F91A12FDCD000
:1000B8005E2FA12FDED04E2FA02FD6D0E983A02F00
:1000C800D8D0E883503009F45AE0809904C01F5F03
:1000D800D5D0809BFECF819904C00F5FCFD0819B84
:1000E800FECF829902C030E0C9D08BE18A95F1F742
:1000F800A89AE52FC7D0A898D1D0A99AE42FC2D042
:10010800A998CCD0AA9AE981BDD0AA98C7D0AB9AB1
:10011800E881B8D0AB98C2D01D3010F010E0AED056
:100128000C3310F000E0AAD0839B2F5F293008F031
:1001380020E0203029F4959896989798839BFECFD5
:10014800213029F4959A96989798839BFECF223070
:1001580029F49598969A9798839BFECF233029F493
:1001680095989698979A839BFECF243029F4959A70
:10017800969A9798839BFECF253029F4959A96985E
:10018800979A839BFECF263029F49598969A979A4A
:10019800839BFECF273029F4959A969A979A839B4A
:1001A800FECF73CFFFCFAA93EA81E370EA83E98198
:1001B800E03019F0EA81E061EA83E881E03019F083
:1001C800EA81E068EA836DD0A7E0ABD0AA812AC0B3
:1001D800BA93AA9366D0A0E0A4D07ED06ED0A1ED49
:1001E800A0D062D0A881B981EC935ED0AA81BB81EE
:1001F800EC93A0E07BD0AE2F19D0AC81BD81EC93FD
:100208006BD026960895AA934CD0A0E08AD0A881F6
:100218001AD0AE2F86D0A98116D0AE2F82D0AA814F
:1002280012D0AE2F7ED058D023960895AA93E88195
:10023800E295EF70AE2FAA0FAA0FEA0FEE0FA99161
:10024800AF70EA0F0895AA93A991EE27AA5012F069
:10025800E05FFCCFA65FEA0F08952AD0E0E0EA93BA
:10026800E1E0EA93A0E09FCFB0E0EAE0F0E088D0D8
:100278000895BB27EAE0F0E088D008951A930A931E
:10028800A32FC1CFF0E0DE011296AE0FBF1FEC9195
:10029800E8BB80E991E00197F1F70895EC85E8BBA8
:1002A80008950BD0A0ED3DC0A1E020D0AE2FBECF69
:1002B800AD98AC98A59AA49815C0A498A598EE27CF
:1002C80000009C9B08959D9B089504D0A49A02D099
:1002D800A59AE1E06DE007C0A49AA59A03D0A59875
:1002E800F9DFA4986BE16A95F1F7089578E0A5988D
:1002F800F1DF9D9BFECFEEDF88949C990894A59A28
:10030800F1DFEE1F7A9599F77A2F772311F4A498E5
:1003180001C0A49ADFDFA598E5DFA59ADBDFA498E2
:10032800D9CF78E0AA0F10F4A49801C0A49ADADF14
:10033800A598D0DF9D9BFECFCDDFA59A7A9591F742
:10034800A498C8DFA598CEDFE1E09C99EE27A59A8E
:10035800C1CFF195E195F04008950024112490E172
:10036800AA0FBB1F001C111C0E1A1F0A18F40E0E30
:100378001F1E01C0A1609A9599F7FD01D00108954B
:1003880012D0EBDF0EF4E5DF0895E894B7FF04C060
:10039800A095B09511966894F7FDDBDFDEDFFD01CF
:1003A8000EF4D7DF0895E894F7FF02C0D2DF68940F
:1003B800B7FF06C0A095B095119600F8039400FA0F
:1003C8000895AC0FBD1F05900D928A95E1F7089529
:00000001FF
